:101000008084002009360100051C0200C135010062
:10101000C1350100C1350100C135010000000000EB
:101020000000000000000000000000008D30010002
:10103000C135010000000000F92F0100C135010099
:1010400049320100A53B020049320100493201004A
:1010500049320100493201004932010049320100A0
:101060006D3B020049320100493201008B3B020016
:101070004932010049320100493201004932010080
:101080004932010049320100493201004932010070
:101090004932010049320100493201004932010060
:1010A0004932010049320100493201004932010050
:1010B0004932010049320100493201004932010040
:1010C0004932010049320100493201004932010030
:1010D0004932010049320100493201004932010020
:1010E0004932010049320100493201004932010010
:1010F0004932010049320100493201004932010000
:1011000001F0FF01102A2BDB10F0070F08D010F8B8
:10111000013B013A8B422DD010F0070F42B3F6D1BC
:10112000F0B441EA012141EA014122F007047FF0D5
:1011300000070023F0E80256083C85EA010586EA2C
:10114000010685FA47F5A3FA87F586FA47F6A5FA68
:1011500087F68EB9EED1F0BC01F0FF0102F0070274
:1011600032B110F8013B013A83EA010313B1F8D11F
:101170000020704701387047002D06BF3546033800
:10118000073815F0010F07D1013015F4807F02BF39
:10119000013015F4C03F0130F0BC0138704700BF8A
:1011A00081F0004102E000BF83F0004330B54FEA18
:1011B00041044FEA430594EA050F08BF90EA020F85
:1011C0001FBF54EA000C55EA020C7FEA645C7FEA18
:1011D000655C00F0E2804FEA5454D4EB5555B8BF3B
:1011E0006D420CDD2C4480EA020281EA030382EAAC
:1011F000000083EA010180EA020281EA0303362D3E
:1012000088BF30BD11F0004F4FEA01314FF4801C10
:101210004CEA113102D0404261EB410113F0004F22
:101220004FEA03334CEA133302D0524263EB4303D9
:1012300094EA050F00F0A780A4F10104D5F1200E77
:101240000DDB02FA0EFC22FA05F2801841F10001D2
:1012500003FA0EF2801843FA05F359410EE0A5F1A6
:1012600020050EF1200E012A03FA0EFC28BF4CF0D7
:10127000020C43FA05F3C01851EBE37101F000458D
:1012800007D54FF0000EDCF1000C7EEB00006EEB9A
:101290000101B1F5801F1BD3B1F5001F0CD3490824
:1012A0005FEA30004FEA3C0C04F101044FEA44527B
:1012B00012F5800F80F09A80BCF1004F08BF5FEA02
:1012C000500C50F1000041EB045141EA050130BDE2
:1012D0005FEA4C0C404141EB0101013C28BFB1F5F4
:1012E000801FE9D291F0000F04BF01460020B1FA3F
:1012F00081F308BF2033A3F10B03B3F120020CDA12
:101300000C3208DD02F1140CC2F10C0201FA0CF0EF
:1013100021FA02F10CE002F11402D8BFC2F1200C54
:1013200001FA02F120FA0CFCDCBF41EA0C0190400A
:10133000E41AA2BF01EB0451294330BD6FEA040453
:101340001F3C1CDA0C340EDC04F11404C4F120023E
:1013500020FA04F001FA02F340EA030021FA04F350
:1013600045EA030130BDC4F10C04C4F1200220FAA7
:1013700002F001FA04F340EA0300294630BD21FAE5
:1013800004F0294630BD94F0000F83F4801306BFAB
:1013900081F480110134013D4EE77FEA645C18BF9F
:1013A0007FEA655C29D094EA050F08BF90EA020F36
:1013B00005D054EA000C04BF1946104630BD91EA2E
:1013C000030F1EBF0021002030BD5FEA545C05D131
:1013D0004000494128BF41F0004130BD14F5800470
:1013E0003CBF01F5801130BD01F0004545F0FE41E4
:1013F00041F470014FF0000030BD7FEA645C1ABF19
:10140000194610467FEA655C1CBF0B46024650EA4F
:10141000013406BF52EA033591EA030F41F400217B
:1014200030BD00BF90F0000F04BF0021704730B501
:101430004FF4806404F132044FF000054FF00001D6
:1014400050E700BF90F0000F04BF0021704730B597
:101450004FF4806404F1320410F0004548BF40426C
:101460004FF000013EE700BF42004FEAE2014FEAC1
:1014700031014FEA02701FBF12F07F4393F07F4F9C
:1014800081F06051704732F07F4208BF704793F09F
:101490007F4F04BF41F40021704730B54FF46074B2
:1014A00001F0004521F000411CE700BF50EA0102B5
:1014B00008BF704730B54FF000050AE050EA01025E
:1014C00008BF704730B511F0004502D5404261EBCE
:1014D00041014FF4806404F132045FEA915C3FF40F
:1014E000D8AE4FF003025FEADC0C18BF03325FEAAC
:1014F000DC0C18BF033202EBDC02C2F1200300FA5D
:1015000003FC20FA02F001FA03FE40EA0E0021FA81
:1015100002F11444BDE600BF70B54FF0FF0C4CF46F
:10152000E06C1CEA11541DBF1CEA135594EA0C0F21
:1015300095EA0C0F00F0DEF82C4481EA030621EA5C
:101540004C5123EA4C5350EA013518BF52EA033597
:1015500041F4801143F4801338D0A0FB02CE4FF049
:101560000005E1FB02E506F00042E0FB03E54FF079
:101570000006E1FB03569CF0000F18BF4EF0010E71
:10158000A4F1FF04B6F5007F64F5407404D25FEA6D
:101590004E0E6D4146EB060642EAC62141EA555120
:1015A0004FEAC52040EA5E504FEACE2EB4F1FD0C62
:1015B00088BFBCF5E06F1ED8BEF1004F08BF5FEAE0
:1015C000500E50F1000041EB045170BD06F0004692
:1015D00046EA010140EA020081EA0301B4EB5C043F
:1015E000C2BFD4EB0C0541EA045170BD41F4801137
:1015F0004FF0000E013C00F3AB8014F1360FDEBF5C
:10160000002001F0004170BDC4F10004203C35DA37
:101610000C341BDC04F11404C4F1200500FA05F3BA
:1016200020FA04F001FA05F240EA020001F000425B
:1016300021F0004110EBD37021FA04F642EB0601D1
:101640005EEA430E08BF20EAD37070BDC4F10C04FB
:10165000C4F1200500FA04F320FA05F001FA04F2BF
:1016600040EA020001F0004110EBD37041F10001AB
:101670005EEA430E08BF20EAD37070BDC4F12005B6
:1016800000FA05F24EEA020E20FA04F301FA05F21E
:1016900043EA020321FA04F001F0004121FA04F2C6
:1016A00020EA020000EBD3705EEA430E08BF20EA96
:1016B000D37070BD94F0000F0FD101F000464000D0
:1016C00041EB010111F4801F08BF013CF7D041EA52
:1016D000060195F0000F18BF704703F00046520056
:1016E00043EB030313F4801F08BF013DF7D043EA27
:1016F0000603704794EA0C0F0CEA135518BF95EADD
:101700000C0F0CD050EA410618BF52EA4306D1D163
:1017100081EA030101F000414FF0000070BD50EA82
:10172000410606BF1046194652EA430619D094EA0C
:101730000C0F02D150EA013613D195EA0C0F05D1F6
:1017400052EA03361CBF104619460AD181EA03014A
:1017500001F0004141F0FE4141F470014FF0000002
:1017600070BD41F0FE4141F4780170BD70B54FF09D
:10177000FF0C4CF4E06C1CEA11541DBF1CEA13551D
:1017800094EA0C0F95EA0C0F00F0A7F8A4EB0504FF
:1017900081EA030E52EA03354FEA013100F08880F6
:1017A0004FEA03334FF0805545EA131343EA1263BF
:1017B0004FEA022245EA111545EA10654FEA002674
:1017C0000EF000419D4208BF964244F1FD0404F52D
:1017D000407402D25B084FEA3202B61A65EB030589
:1017E0005B084FEA32024FF480104FF4002CB6EB46
:1017F000020E75EB030E22BFB61A754640EA0C00C6
:101800005B084FEA3202B6EB020E75EB030E22BF05
:10181000B61A754640EA5C005B084FEA3202B6EB46
:10182000020E75EB030E22BFB61A754640EA9C0005
:101830005B084FEA3202B6EB020E75EB030E22BFD5
:10184000B61A754640EADC0055EA060E18D04FEA93
:10185000051545EA16754FEA06164FEAC30343EA33
:1018600052734FEAC2025FEA1C1CC0D111F4801F00
:101870000BD141EA00014FF000004FF0004CB6E7F9
:1018800011F4801F04BF01430020B4F1FD0C88BF98
:10189000BCF5E06F3FF6AFAEB5EB030C04BFB6EBA3
:1018A000020C5FEA500C50F1000041EB045170BD96
:1018B0000EF0004E4EEA113114EB5C04C2BFD4EBC3
:1018C0000C0541EA045170BD41F480114FF0000E47
:1018D000013C90E645EA060E8DE60CEA135594EAC3
:1018E0000C0F08BF95EA0C0F3FF43BAF94EA0C0FC6
:1018F0000AD150EA01347FF434AF95EA0C0F7FF43B
:1019000025AF104619462CE795EA0C0F06D152EA8E
:1019100003353FF4FDAE1046194622E750EA410672
:1019200018BF52EA43067FF4C5AE50EA41047FF483
:101930000DAF52EA43057FF4EBAE12E74FF0FF3CE8
:1019400006E000BF4FF0010C02E000BF4FF0010CB9
:101950004DF804CD4FEA410C7FEA6C5C4FEA430C32
:1019600018BF7FEA6C5C1BD001B050EA410C0CBF81
:1019700052EA430C91EA030F02BF90EA020F0020E3
:10198000704710F1000F91EA030F58BF994208BF4A
:1019900090422CBFD8176FEAE37040F00100704707
:1019A0004FEA410C7FEA6C5C02D150EA013C07D15E
:1019B0004FEA430C7FEA6C5CD6D152EA033CD3D0A9
:1019C0005DF8040B704700BF8446104662468C46A3
:1019D0001946634600E000BF01B5FFF7B7FF0028D6
:1019E00048BF10F1000F01BD4DF808EDFFF7F4FFFF
:1019F0000CBF012000205DF808FB00BF4DF808ED8A
:101A0000FFF7EAFF34BF012000205DF808FB00BFAC
:101A10004DF808EDFFF7E0FF94BF012000205DF8CE
:101A200008FB00BF4DF808EDFFF7CEFF94BF012083
:101A300000205DF808FB00BF4DF808EDFFF7C4FF7C
:101A400034BF012000205DF808FB00BF4A0011D21E
:101A500012F5001211D20DD56FF47873B3EB625208
:101A60000ED44FEAC12343F0004343EA505323FA14
:101A700002F070474FF00000704750EA013002D189
:101A80004FF0FF3070474FF0000070474FEA4102BF
:101A9000B2F1E04324BFB3F5001CDCF1FE5C0DD9CC
:101AA00001F0004C4FEAC0024CEA5070B2F1004F16
:101AB00040EB830008BF20F00100704711F0804F19
:101AC00021D113F13872BCBF01F00040704741F4DE
:101AD00080114FEA5252C2F11802C2F1200C10FAE2
:101AE0000CF320FA02F018BF40F001004FEAC123C6
:101AF0004FEAD32303FA0CFC40EA0C0023FA02F36A
:101B00004FEA4303CCE77FEA625307D150EA01333F
:101B10001EBF4FF0FE4040F44000704701F000400F
:101B200040F0FE4040F40000704700BF80F00040ED
:101B300002E000BF81F0004142001FBF5FEA4103A5
:101B400092EA030F7FEA226C7FEA236C6AD04FEAA5
:101B50001262D2EB1363C1BFD218414048404140EA
:101B6000B8BF5B42192B88BF704710F0004F40F49C
:101B7000000020F07F4018BF404211F0004F41F4B8
:101B8000000121F07F4118BF494292EA030F3FD084
:101B9000A2F1010241FA03FC10EB0C00C3F1200397
:101BA00001FA03F100F0004302D5494260EB400026
:101BB000B0F5000F13D3B0F1807F06D340084FEA91
:101BC000310102F10102FE2A51D2B1F1004F40EB86
:101BD000C25008BF20F0010040EA030070474900EE
:101BE00040EB0000013A28BFB0F5000FEDD2B0FA8B
:101BF00080FCACF1080CB2EB0C0200FA0CF0AABFAE
:101C000000EBC25052421843BCBFD040184370474B
:101C100092F0000F81F4000106BF80F40000013251
:101C2000013BB5E74FEA41037FEA226C18BF7FEA28
:101C3000236C21D092EA030F04D092F0000F08BF6A
:101C40000846704790EA010F1CBF0020704712F051
:101C50007F4F04D1400028BF40F00040704712F190
:101C600000723CBF00F50000704700F0004343F0F5
:101C7000FE4040F4000070477FEA226216BF08462B
:101C80007FEA23630146420206BF5FEA412390EAEE
:101C9000010F40F4800070474FF0000304E000BFE4
:101CA00010F0004348BF40425FEA000C08BF704795
:101CB00043F0964301464FF000001CE050EA010259
:101CC00008BF70474FF000030AE000BF50EA01026E
:101CD00008BF704711F0004302D5404261EB41015B
:101CE0005FEA010C02BF84460146002043F0B64380
:101CF00008BFA3F18053A3F50003BCFA8CF2083AA5
:101D0000A3EBC25310DB01FA02FC634400FA02FCAD
:101D1000C2F12002BCF1004F20FA02F243EB0200B4
:101D200008BF20F00100704702F1200201FA02FC16
:101D3000C2F1200250EA4C0021FA02F243EB020009
:101D400008BF20EADC70704753B94AB9002908BFC0
:101D500000281CBF4FF0FF314FF0FF3000F02AB8D1
:101D6000ADF1080C6DE904CE07F09FFDDDF804E04D
:101D7000DDE9022304B07047D0B50C4B00220646C3
:101D80000F46FFF7C9FBFFF761FE0446FFF74AFB6A
:101D9000074B0022FFF7C0FB02460B463046394690
:101DA000FFF702FAFFF752FE2146D0BD0000F03DDA
:101DB0000000F041704700BF4FEA410C7FEA6C5CC5
:101DC00002D150EA013C0AD14FEA430C7FEA6C5C35
:101DD00002D152EA033C02D14FF0000070474FF0AD
:101DE000010070474FEA410212F5001215D211D5D9
:101DF0006FF47873B3EB625212D94FEAC12343F008
:101E0000004343EA505311F0004F23FA02F018BF89
:101E1000404270474FF00000704750EA013005D152
:101E200011F0004008BF6FF0004070474FF0000015
:101E3000704700BF1FB5144C207A8DF80100E0797F
:101E40008DF80000A079ADF804006079ADF80200CB
:101E5000684602F0E1FB08B1AD2110E0E0680290B5
:101E600002A802F0EFFB08B1B12108E007480068C2
:101E7000039003A809F098FC002803D0B5210320A3
:101E800000F0E4F81FBD0000780F0020D42000000F
:101E900010B528B1142204490AF03FFA002010BD01
:101EA0006FF0150010BD0000FC20000070B56FF051
:101EB0002C0578BB224C607808B1A81170BDF9B12F
:101EC0006FF01500002AF9D01E4B891E072931D268
:101ED000DFE801F00407171A301D21001078587050
:101EE0001DE091780029E9D0D1780029E6D0117859
:101EF0001B29E3D351781B29E0D31068C3F80500F0
:101F00000DE01068D8600AE01078987007E010883B
:101F1000588204E00EE01188FF29CFD819750122FC
:101F20000849002007F023FEB0F5803F04DB6FF086
:101F30000B0070BD284670BD0121A17070BD00006E
:101F400040000020780F002010B5074C607820B1C9
:101F500002F010FD207807F0B1FB00F0DBFD00F08F
:101F6000B3FE0020607010BD4000002070B50C462C
:101F7000050002D00CB1600702D06FF0150070BDF3
:101F800000F0E2F8A8B1284607F05EFB0A4D0022F7
:101F90000A492870204607F0EAFD09F059FE0021A1
:101FA000287802F0D1FCFFF745FF0120687000207F
:101FB00070BD4FF0FF3070BD40000020780F002052
:101FC00030B589B004000CD007F0E6FA4FF0FF35C9
:101FD00020B107F097F9B0F5FA7F05D9284609B086
:101FE00030BD6FF01500FAE7134D14486C6000F037
:101FF000BFF900206870A8700146242268460AF0E4
:1020000006FA24220E4968460AF087F92422694616
:102010000C480AF082F9EFF3108472B600F088FDE4
:10202000094800F05DFE18B1CB21032000F00EF846
:1020300004B962B60020D2E740000020351E00003F
:10204000D8200000780F0020752100000EB572B670
:10205000154A5568DDB1002203466E460A2403E0A6
:10206000B0FBF4F0521CD2B20028F9D1B0540AE00F
:10207000D8B2B0FBF4F7B3FBF4F304FB1700521E25
:10208000D2B23030B054002AF2D13046A847BFF364
:102090004F8F06480168064A01F4E0611143016070
:1020A000BFF34F8F00BFFDE7400000200CED00E0C4
:1020B0000400FA05064810B581784078014302D043
:1020C0004FF0FF3010BD02F065FC002010BD000095
:1020D000400000200100000000010100001B1B0364
:1020E000020000004C1D000000001F00080000005E
:1020F000000000000000000000000000E07E2EC193
:102100005E0585234615DCFA8E297D701093A5FCAB
:10211000054A10B5526812B1BDE81040104792212F
:102120000420FFF793FF00009C0F0020054A10B524
:10213000926812B1BDE81040104798210420FFF7C3
:1021400085FF00009C0F00200548016829B1416807
:1021500019B1806808B10120704700207047000065
:102160009C0F002002490DC881E80D000020704737
:102170009C0F0020F8B5124C0026256811E000984D
:10218000022802D003280CD106E0206810B10020FC
:10219000266005E028210CE0206868B10120266057
:1021A000A847684600F062FD0028E8D0052805D061
:1021B00035210420FFF74AFF2D21FAE7F8BD000082
:1021C000480000202DE9FC41284E0546001D06F17F
:1021D00044073060387858B1BA783C46791C2846B4
:1021E000921C0AF09AF8002020700420BDE8FC81BF
:1021F0001E4800F07DFF0446022804D0042C07D0BE
:10220000082C2CD02FE01949284607F035FD2AE08C
:102210003078082804D105213E2007F019FD50B17F
:102220001249284607F08DFDB0F5817F0ED3C721F6
:102230000820FFF70BFFB088ADF8000001A9684641
:1022400007F0D1FF0028C5D0A821F1E70028C1D0B0
:10225000A978287807F0FCFC0028BBD003E00349EC
:10226000284607F037FD2046C0E70000A80F0020F1
:1022700070B50A7882703AB3012A25D81323037007
:1022800000230AE001EB430400EB4305A678EE705F
:102290006488240A5B1C2C71DBB29342F2D30023C6
:1022A0000BE000BF01EB430500EB43042E796671A0
:1022B000AD882D0A5B1CA571DBB29342F2D30121DC
:1022C00001EB8200C0B270BD002070BD402803D277
:1022D000401EC1B2054805E0FF2805D04038C1B214
:1022E0000248083007F02CBF012070474C00002046
:1022F000401EC1B2014807F023BF00005C0000206F
:10230000024902680A614068486170474C00002039
:10231000054902680A60406842F48C220A60034A58
:1023200010434860704700004C000020F80740024E
:1023300007484FF0FF3100220160C90C416000F1F5
:1023400008011F200A604A600831C1E90002704795
:102350004C00002010B5FFF7EBFF09F0F4FA04463B
:102360000248006800B18047204610BD640000208C
:102370000149086070470000640000202DE9F04129
:1023800004464FF08050D0F8A0701F4D1E4E103DF7
:102390001022002120460AF03AF81022002104F110
:1023A00010000AF034F82868401C08D16868401C06
:1023B00005D1A868401C02D1E868401C07D02868F5
:1023C0006A68A968EB6820616261A161E36100202D
:1023D00000F0DAFC8743F80713D13068401C08D1BD
:1023E0007068401C05D1B068401C02D1F068401CE8
:1023F00007D032687068B168F36822606060A160DD
:10240000E3600020BDE8F0819000001038B54FF087
:10241000805104462248D1F8A010214D0268143D95
:10242000521C04D14268D2431204120C35D0C907A1
:1024300033D001684068ADF80000C4F80110BDF861
:102440000000A4F80500A07940F0C000A071286841
:10245000401C0CD06868401C09D0A868401C06D0FD
:10246000E868401C03D0002000F08EFC40B1102230
:102470000021E01D09F0CBFF01202070002038BDB5
:102480002A686968A868EB68C4F80720C4F80B10CC
:10249000C4F80F00C4F81330EEE70020EDE70000A9
:1024A000A400001002210180418000210171E0217F
:1024B000417142F67E61C180014981600020704710
:1024C000C15E05852DE9F0418C79DDF818E0082C16
:1024D00001D9DB212CE0DFF8A4C05CF820500DB15D
:1024E000DC2125E0CD79002D45D06F000A371D682D
:1024F000022C3D4401D9264601E04FF002062E444D
:10250000A6F1010601D9254601E04FF00205A5F12B
:10251000010526EA05068D882544A4F10104A5F1EC
:10252000010525EA04054FF6FF74A54203D3E72110
:102530001720FFF78BFDBEF1000F18D1F41B4CF8EC
:1025400020402580C879A0700120E07022710868C1
:102550004FF6F072000CE08008882081002003E034
:1025600004EB4007401C7A81CF798742F8D8C879BC
:1025700000FB05601860BDE8F081000068000020E5
:1025800030B503464FEA020003EB400464898C42F5
:1025900009D09C78401CB0FBF4F504FB1500C0B2D8
:1025A0009042F1D1FF2030BD70B50546194850F872
:1025B000214064B3B5F5706F04D340F22521172094
:1025C000FFF744FD2946204607F00DFF0146FF288E
:1025D00004D02046BDE8704007F019BFA078B5FBD5
:1025E000F0F100FB1150C6B232464FF6F0712046B2
:1025F000FFF7C6FF0246FF2809D0B24201D00020F3
:10260000E07029462046BDE8704007F0E6BE002095
:1026100070BD000068000020084A10B552F8214043
:102620000146204607F0DFFE0146FF2804D0204681
:10263000BDE8104007F0EBBE002010BD6800002090
:10264000F0B589B004000E46069407D00025600757
:1026500006D040F219111720FFF7F8FC0125F6E724
:1026600014480022144F02604260D7E9001096F827
:1026700000C0BB686CF31F60CDE90203CDE90051D7
:1026800006AB01A91046FFF71DFFD7E903107378C9
:102690007A6963F31F60CDE90202CDE9005106AB10
:1026A000002201A90120FFF70DFF069809B0001BC9
:1026B000F0BD000068000020A827000010B5044607
:1026C00080790E4951F82000A8B14FF6F073E179F6
:1026D000827891420FD24A1CE27100EB410252898A
:1026E0009A42F4D000EB41025289A28007F08FFE9B
:1026F0002060002010BD052010BD000068000020F3
:102700002DE9F04107464FF6FF703880124850F827
:102710002140ECB1A5782079B0FBF5F105FB11065D
:1027200032464FF6F0712046FFF72AFF0246FF2897
:102730000ED0A81B1044B0FBF5F105FB1100217968
:10274000084481B239802046BDE8F04107F045BE1B
:102750000020BDE8F0810000680000202DE9F04174
:102760000646104850F821503146284607F03BFEF7
:102770000446FF2812D0D5F8060021464FEA30471C
:10278000284607F044FE01463046B84705EB4401B1
:102790004FF6F07048810020BDE8F08143F202005E
:1027A000FAE70000680000206FB30000F80208009C
:1027B0000000000063AC00001801080000000000E9
:1027C0002DE9FF4F244C064681B020689A46934677
:1027D00058B1017AB14203D9406850F8260040B19F
:1027E00043F2020005B0BDE8F08FA5211820FFF7E5
:1027F0002DFC1946029807F045FE804658460E9972
:1028000007F036FE054608EB0500001D87B220687C
:10281000A1463946006807F07BFD04001AD06780A6
:1028200025802946201D0E9D07465A4609230095FE
:1028300007F01BFD2088414638440A23029ACDF850
:1028400000A007F012FDD9F80000406840F82640CB
:102850000020C7E70420C5E77000002070B5144CC5
:1028600023688BB1197A814212D95A6852F8201024
:1028700071B1002542F820504A88186807F0A0FD81
:10288000216800200A7A0CE0C6211820FFF7DEFB41
:1028900043F2020070BD4B6853F8203033B9401C3E
:1028A000C0B28242F7D8086807F07FFD002070BDF3
:1028B000700000202DE9F0410D46040090464FF0D5
:1028C000000606D00027A00705D086211820FFF7B4
:1028D000BDFB0127F7E7CDB11146002007F049FD08
:1028E0000C3000EB85068FB90A4F04F10C00AA00EA
:1028F0003C602572606000EB85002060002160680C
:1029000009F085FD4146386807F033FD3046BDE8E3
:10291000F0810000700000200A4910B502460968E5
:10292000002059B10B7A934207D9496851F8221017
:10293000002902D031F8040B084410BDFA211820F8
:10294000FFF784FB7000002070B51E4B45680446FD
:102950000022A1B101206070588881085FF000005A
:1029600004EB400304EB80061A83198400FB015337
:1029700073602318401C1A750428F1D370BD62706F
:102980005FF0000004EB40010A830A8404EB80013D
:102990004A602118401C0A750428F3D35888B0F502
:1029A000FF7F01D2460800E0FF2607F0DFFD6560EB
:1029B00020842918A1606684E560A0842161E684F2
:1029C00070BD0000740000202DE9F04158B10025D1
:1029D0001144244ECCB200273470810705D04E211B
:1029E0000920FFF733FB0125F2E71F2B04D84FF630
:1029F000FF7101EA830109E05900FF2B0CD903F1B3
:102A0000FF02B2EB430F00D2114689B24FF6FC72BF
:102A1000C91C114035B107E07C22B2EB430FF4D35F
:102A20007C21F2E77060718004EB840207EBC20343
:102A3000002276684FF0010C0DE04DB902EB8207E1
:102A400000EB030E06F837C006EBC707C7F804E033
:102A5000521C0B44D2B2A242EFD3DB1D23F007007D
:102A6000BDE8F0817400002070B5104A0020516864
:102A7000127814E000EB800311F833306BB100EBF7
:102A8000800011EBC0040CD00025A5700121204668
:102A9000FFF75AFF2570204670BD401CC0B290421F
:102AA000E8D3A9210920FFF7D1FA00007400002023
:102AB000044810B54088840807F058FD844200D3CC
:102AC000204610BD7400002030B50D49012048603B
:102AD000821EC1F808230B4988600023C1F8003228
:102AE000C1F80823084C2360251D28608860C1F8C0
:102AF00008232360286006490448086030BD0000B0
:102B000000E0004000F0004000F500400000F63F0B
:102B100008F5014010B5FFF7D7FF07F0FEFD0349A8
:102B20000148086010BD00000000F63F08F50140B4
:102B300010B5FFF7C9FF07F0F0FD00F087F8054971
:102B40000348086000F0B8F8BDE8104000F0DCB8B9
:102B50000000F63F08F501402DE9F84F824638485D
:102B600009F0EAFADFF8D8B028B101260BF101002C
:102B7000FF21017000E000264FF48075314C4FF0CA
:102B800000082F1D01216160C4F80081C4F8048190
:102B9000C4F804A52160DFF8B0901CE0D9F800006B
:102BA000C00618D50E2007F0C7FDEFF31080009087
:102BB00072B603212046C4F80413294607F0C9FD64
:102BC00030B93946204607F0C4FD08B909F04BFB7F
:102BD000009800B962B62946204607F0BAFD28B928
:102BE0003946204607F0B5FD0028D7D039462046A3
:102BF00007F0AFFD0028C5D106BB9BF801108DF88A
:102C00000010009900919DF8001009B1012500E025
:102C100000250BF1010080F800800320C4F80803B0
:102C2000C4F80481C4F800810E2007F085FD044833
:102C300009F099FA15B11120BDE8F88F0020FBE7E3
:102C40007801002000E0004010ED00E010B50648DB
:102C500009F085FA18B130211D20FFF7F7F9024875
:102C60000021417010BD00007801002070B51149AD
:102C70000A68EAB100231D4601244A68521C4A60D2
:102C8000092A00D34D600E7904FA06F20E68164246
:102C90000BD0EFF3108372B60C6894430C6003B949
:102CA00062B649680160002070BD5B1C092BE4D34B
:102CB000052070BD7C0000200248002101604160B9
:102CC000704700007C00002010B5044C2078FF28DD
:102CD00003D006F0F3FCFF20207010BD00000020A0
:102CE00010B5084C617809B10F2010BD06F0ACFC9E
:102CF0002070FF2801D0002010BD73211F20FFF796
:102D0000A5F900000000002001490020487070472C
:102D10000000002005498A8C824205D1002081F8FC
:102D200022004FF6FF70888470470000C811002011
:102D30000A4A10B1012807D00EE0507860B1D2F8ED
:102D400002000860D08804E0107828B1906808601C
:102D50009089888001207047002070477A01002008
:102D6000084A012338B1012804D113700868906023
:102D700088889081704753700868C2F8020088887C
:102D8000D08070477A010020064910B1012802D096
:102D900005E0487800E0087808B10120704700207D
:102DA000704700007A010020014908777047000051
:102DB0008A0A0020004870477813002004494A78A6
:102DC000824203D9084490F84201704700207047BE
:102DD000EE11002004494A78824203D901EB001029
:102DE0008230704700207047EE110020054A01EB49
:102DF000410102EB41010268C1F80A218088A1F873
:102E00000E017047EE11002004494A78824203D92E
:102E100001EB0010801C704700207047EE1100206D
:102E200010B54FF4C5720021054809F0F0FA0548C5
:102E30000021017041704FF46171418010BD0000AC
:102E4000EE110020700100200B4B10B55C7884421D
:102E500010D9184490F80201C0EBC000184490F853
:102E600052310B70D0F853111160B0F857019080B7
:102E7000012010BD002010BDEE1100200148408847
:102E8000704700007001002005494A78824203D94A
:102E9000084490F83A0108B10020704701207047BB
:102EA000EE110020014948707047000070010020B9
:102EB0000246094810B500780B4658B107484178DA
:102EC00041B10BB1801C01E00448823001F0B6FD35
:102ED000012010BD002010BD70010020EE11002067
:102EE000084910B5034600204A7806E00C1894F80B
:102EF00002419C4204D0401CC0B28242F6D8082055
:102F000010BD0000EE110020F0B51A4C0346002061
:102F100025782BE0C0EBC00222440F7892F853C111
:102F200092F8526187EA0C075E403E444F7892F86F
:102F300054C187EA0C073E448F7892F855C187EA5E
:102F40000C073E44CF7892F856C187EA0C073E44FE
:102F50000F7992F857C192F8582187EA0C073E443E
:102F60004F795740F74204D0401CC0B28542D1D8B7
:102F70000820F0BDEE1100202DE9F047044600F1D5
:102F800080054FF0010971B104F1A6077E1E0129E9
:102F900029D002294ED0032923D139463046BDE835
:102FA000F04707F0EEBC4FF43E72002109F02FFA13
:102FB00085F825902449E96620460721296710F8FD
:102FC000EC1F21F004010170FE2085F8A6007F208F
:102FD00068761E48A8600020C5E90000202084F81B
:102FE000A402BDE8F0874FF00008A4F8368284F808
:102FF0002B82216916480A460844B0FBF1F0C4F858
:10300000C40040F6B830A4F8C800638B284600F02E
:1030100021F83946304607F0B4FC09F000F918B140
:10302000606900F0A9F910B184F81A82D9E784F830
:103030001A92D6E70169B4F8DA32D4F8D4222846D5
:10304000BDE8F04700F006B82F4904C400E0FCFFDB
:103050007FC3C90110B50024A0F84C4030F8504F90
:103060004C43B4FBF2F420F8104940F2712463435E
:1030700002EB03135B1EB3FBF2F3C381094BB3FBFB
:10308000F2F35B1C83820389634302EB03135B1E31
:10309000B3FBF2F3436003684B43B3FBF2F101600F
:1030A00010BD0000005A6202024991F9001007F0B9
:1030B0005DBC00008801002008B57F208DF800006D
:1030C000684602F09FF840B105484078404241B25E
:1030D0009DF9000007F04AFC08BD9DF9000008BDFD
:1030E00088010020014A107051707047880100204B
:1030F0002DE9F84FDFF878915E4F83464FF0010AD3
:10310000002678683546007A8DF800000098009017
:103110009DF80010102906D199F8131019B1B9F8CB
:103120001400002873D08DF80060684600F0ACF8F9
:103130009DF800100029F8D1002868D00446007AD4
:103140008DF80000009800909DF8008004F10800C0
:103150000521009001704046B8F1080F42D007DC0D
:1031600002280DD0032817D0B8F1040F05D11DE0B7
:103170000F2852D0B8F1100F59D040F24A2165E023
:10318000626832B1594620469047042060F3070533
:1031900010E040F2C31159E0626822B1594620465E
:1031A0009047054606E04FF4E6714FE06168B1B123
:1031B00020468847C5F3072001284AD0EFF3108145
:1031C00072B6207A8DF80000009800909DF80000FB
:1031D000052842D0B0B366F30705A1B341E04FF430
:1031E000EB7133E060685D4698B104882046FFF7D4
:1031F00093FB80B16E700D212970EC80A5F808A0BA
:1032000085F804A0314607F059F804203E61BDE876
:10321000F88FE5211AE0C52118E08BF8016016212E
:103220008BF80010D4F80910CBF80410ADE7124861
:10323000026822B1606838B1008859469047022080
:103240003E61E4E709E00BE04FF410711020FEF757
:10325000FDFE00984146017003E026723E61BCE726
:1032600062B615F0FF0F3FF44CAFE8B2CFE70000B5
:10327000F01000201C11002084000020014908707B
:1032800000F064B88A01002038B5034617490020D1
:1032900018700869012440B1027A8DF80020009A64
:1032A00000929DF80050002D11D14868027A8DF8E7
:1032B0000020009A00929DF80050012D06D0EFF3F7
:1032C000108272B605684D6012B102E0002038BD70
:1032D00062B6027A8DF80020009A00929DF80050A4
:1032E0000DB1086138BD1C7038BD00001C110020F4
:1032F00038B5D0B1416000F108010A70EFF31083D6
:1033000072B6104C0460211F4A684AB1127A8DF8D7
:103310000020009A00929DF80050012D00D10C6011
:103320000A68106008602BB105E040F2752110209A
:10333000FEF78CFE62B604480078BDE8384006F01F
:10334000A1B90000201100208A01002010B514222C
:103350000021084809F05BF80648122200211438C1
:1033600009F055F8034801210173011D4160016016
:1033700010BD00001C110020F0B56FF01F02010C01
:1033800002EA90261F25A1F5AA4054380DD0A1F5D8
:10339000AA40553809D0A1F52850AA3805D0A1F582
:1033A0002A40AA3801D0012000E000200022134664
:1033B0004FEA020482EA0107FF431F437F1C0FD03C
:1033C00006F00107520842EAC73205F001075B0820
:1033D00076086D08641C43EAC733162CEAD3F0BDA7
:1033E0000020F0BD10B5044807F0A4FB0248BDE87A
:1033F0001040083007F09EBB88000020014800F014
:1034000009B8000088000020014800F003B800005F
:103410009000002010B5D0E90021094B094C53431E
:103420005443514081EAB21282EA41224FEAF1410B
:10343000C0E9002143EAD46303EB8303184610BDBF
:103440006037EFC6BB79379EF8B507F098FB0446A6
:103450000D466A4600F062F808B10120F8BD0F4839
:10346000037841788B4201D10020F8BD1A464168AB
:1034700008E000BF01EBC206521E56E9027CC6E915
:10348000007CD2B29DF80060B242F3D8F2B201EBF8
:10349000C2015B1CC1E900450370DEE79800002013
:1034A00010B5420703D063214820FEF7CFFD20B1BD
:1034B000034A5170506000201070C80010BD000019
:1034C0009800002038B507F05AFB6A4600F026F84D
:1034D000002814D00A4A1078401EC1B211709DF81D
:1034E0000000526808E000BF02EBC003401CD3E9B3
:1034F0000245C3E90045C0B28842F5D3012038BD7A
:1035000098000020014900200870704798000020B2
:10351000014840787047000098000020F0B5204D29
:10352000002313702B7823B300245B1EDBB2D5F885
:1035300004C00BE0E5186D080CEBC506D6E9007673
:103540003F1A8E4101D22C4600E02B461D1B012D57
:10355000F0DC0CEBC406D6E9005680EA050781EAE8
:10356000060E57EA0E0705D0451B71EB060503D280
:10357000147010E0147011E00CEBC305D5E90045A0
:1035800080EA040681EA05073E4306D0001BA941F4
:1035900000D35B1C13700020F0BD13700120F0BD40
:1035A0009800002070B50446007C00B302281ED0AD
:1035B0005FF0010004F1510184F850000D46C0B1E4
:1035C000E07DF0B1D4F81100C4F85100B4F8150052
:1035D000A4F85500207C07F002FB207608206076D6
:1035E00094F85000294607F0E6FAA8B90EE000204A
:1035F000E0E70020FFF79CFB0028EBD140F2BA4146
:1036000001E040F2BE412D20FEF720FD94F850006D
:10361000294607F0D9FA00B10120A076207E30B10A
:1036200094F8570004F1580107F01EF96076FFF78F
:1036300025FC0C49A0FB012304F1480007F039FCEC
:103640000021204607F0EEFB002084F85E00A07801
:10365000400705D52046BDE87040002100F084BD3C
:1036600070BD000040420F0030B50C468DB00546DD
:103670000146242202A808F050FE0BA807F076FCB1
:10368000A07A8DF8180020788DF80800B4F80100B1
:10369000ADF800009DF8000000F00101C0F3400209
:1036A00041EA4201C0F3800241EA8201C0F3C00254
:1036B00041EAC201C0F3001241EA0211C0F3401214
:1036C00041EA4211C0F3801041EA8010ADF80A00CF
:1036D000207D012806D0022804D040F2E9210620EE
:1036E000FEF7B4FC8DF80C00617A0BA807F025FCFE
:1036F000207D0121022802D1607D401CC1B2A07E44
:10370000401CC2B20BA807F0DFFBBDF80A0000079F
:1037100001D5002020E00BA807F0E8FBBDF80A1057
:10372000282200F07DFD40F2712100F2DB20B0FB89
:10373000F1F04843D4F8021040F271230A0A40F233
:1037400071214A43D4F80510090A5943904201D81F
:10375000049204E0884201D8049000E00491A07C27
:103760008DF81700207E012800D000208DF814006D
:10377000686B06F009FF686B06F0AEFF242202A911
:10378000284608F0CAFD0B98A862BDF83000A8854D
:10379000E07A68B102280BD05FF0010085F857008D
:1037A000E068A865208AA5F85C000DB0002030BD57
:1037B0000020F3E70A4A10B500211170094C60603F
:1037C00000F022F810B140F22E3104E0A068002889
:1037D00004D140F231312D20FEF738FC10BD00003D
:1037E00030110020A0000020024901488860704785
:1037F00008420000A00000200249086089680968AA
:1038000008470000A0000020084810B5007810B15B
:103810000C24204610BD002418222146034808F03D
:10382000F6FD01F003FA01F021F9F2E73011002072
:10383000044910B50978012901D100F0CDFB002021
:1038400010BD00003011002010B504468078C0F390
:10385000C00058B13C23FF222046E16900F0E2FBA2
:103860000222044904F16C0007F050F9012084F8A9
:10387000690010BDBDAD00002DE9F0410F00044608
:1038800023D004F12800054607F059FBB0B9A07811
:10389000C0F3C00050B3284607F028FB0646284670
:1038A00007F04DFB301AC0B207F09EFB01463548C9
:1038B000426811444160284607F05FFB284607F044
:1038C00021FB0146204607F0E9FA2F4D94F85E608F
:1038D00000216868018007F062FA6088132813D01D
:1038E00009DC102836D0122809D131E02046BDE885
:1038F000F04100F071BB15280FD01D280DD040F20B
:1039000073612D20FEF7A2FB0021686807F077F8AD
:103910000121686807F043FA20E00121686807F098
:103920006EF80121686807F03AFA36B104F15F01D8
:10393000686807F07FF8012106E004F15801686823
:1039400007F078F894F85710686807F079F805E000
:10395000062100E00221686807F051F8204600F0D7
:1039600031FC60881D2807D0152805D094F83C202C
:10397000A16B686807F033F839462046BDE8F0418E
:1039800000F0F4B930110020A00000202DE9F04132
:103990002F4D80462878022805D02878032802D0A9
:1039A00040F62D512BE02B4C2668307B18B1FFF7E9
:1039B00083FB86F82E00D4F804C00027B8F1000F6E
:1039C0009CF8000000F00F0627D02168C00901F123
:1039D000510391F850200CF1090106F0D3FEE0B13B
:1039E0003946606806F0EBFFB8B12A7820683146A6
:1039F000022A07D02A78032A04D040F606512D2047
:103A0000FEF724FBA2682B7852696FF0070606EBDD
:103A10008303D2589047064600E00126A87B18B1E0
:103A200001F004F901F022F8002E0FD0206807F011
:103A3000F1FA30B101F01CF9A0688068BDE8F041EE
:103A400000472068BDE8F04100F0C6BABDE8F0814B
:103A500030110020A000002010B5032902D0052954
:103A60000AD102E000F04EFB03E00449096809B105
:103A7000884708B1002010BD012010BDAC00002017
:103A8000094A0300106801D000F0A6BA002909D045
:103A90009168064A096912786FF00F0303EB8202FE
:103AA0008958084770470000A0000020301100200E
:103AB00070B504464088102819D0104DA87B20B15D
:103AC00000F0F4FF402001F0BFF80D48406801F01D
:103AD000F3FAA078400704D400212279084601F0C7
:103AE00073FB002001F0BAF90220287070BD204657
:103AF000BDE870400121FFF7BFBE0000301100207B
:103B0000A000002010B5124C206800F025F82068B5
:103B100007F080FA002820680BD00E490A78022AA4
:103B20000BD00A78032A08D040F637412D20FEF743
:103B30008DFABDE8104000F04FBAA2680978D2684B
:103B40006FF0070303EB81015158BDE810400847AF
:103B5000A00000203011002010B5017B21B10446E7
:103B6000FFF7AAFA84F82E000548807B002805D0CC
:103B700001F05CF8BDE8104000F078BF10BD000017
:103B8000301100202DE9F0415C4D044686B02878C4
:103B9000E8BB2078FF284BD04FF00008A5F80C8038
:103BA000C5F8048085F8018085F8028084F8698072
:103BB000534B544E0FCB8DE80F00B0684068039014
:103BC000684601F043F901F0D1F901F02FF800F057
:103BD0004DFF4D4801F022FB4C4801F029FB04F158
:103BE0002800074607F0C9F9384607F08BF9014667
:103BF000204607F053F994F90E0001F03BFA2179C1
:103C0000002001F0BFF80121A860A8B100E00FE09A
:103C100004F13801606B06F026FD074604F140010F
:103C2000606B06F023FD4FB194F8201051B905E008
:103C30000C2006B0BDE8F08129705CE020B194F85A
:103C4000210008B1012700E00027A07E20B9207ED6
:103C500010B9A078400723D5D4E912106FF00042C4
:103C6000504070EA010106D008F0C5F9D4E91223EA
:103C7000801A994100D29FB1FFF700F92449A0FBB7
:103C8000012304F1480007F014F90121204607F050
:103C9000C9F8A078400703D50121204600F064FA56
:103CA0007068C01C06F0D3FDA873A078C00722D0AE
:103CB000CDF81080FF20CDF81480E873E66906F196
:103CC0000A0713E0049CB44210D0727A607A3B4633
:103CD00004F10A0106F056FD40B1A078E873D4F86B
:103CE00003002861B4F80700A88204E004A8FEF7E6
:103CF000E5FC0028E6D000209BE700003011002002
:103D0000E8410000A0000020D6BE898E5555550020
:103D100040420F0010B50446FFF734FF002808D1D9
:103D200004480078012803D000212046FFF7A4FDB5
:103D3000002010BD301100200A4810B50A4904685F
:103D4000087800280DD00878022802D008780328C7
:103D500002D12046FFF700FF2046BDE8104000F0EA
:103D60003BB910BDA0000020301100202DE9F0412A
:103D7000044629480D46406801F09EF9274E04206C
:103D8000307055B36088102823D004F12800804695
:103D9000B56807F0ABF80746404607F0D0F8381A88
:103DA000401EC0B26188282200F05AFA0544A0786B
:103DB000C0F3C00030B17068054407F019F9284419
:103DC000C4F8D80022792946002001F08BF920B9E7
:103DD0000CE02179002000F09BFF6088132811D0AF
:103DE00007DC102815D0122807D10BE040F6A851A7
:103DF00005E0152806D01D2804D040F6BC512D2022
:103E0000FEF724F92279BDE8F0410121002001F0FC
:103E1000DBB9BDE8F0810000A000002030110020D7
:103E200038B5044690F8BC000B468DF800000098A9
:103E300000909DF8000000283AD1207884F8BD0059
:103E4000FF2B10D004F1BF02511E1846FEF7FCFFF5
:103E500030B194F8BE0040F0020084F8BE0011E0DA
:103E600041F2180121E0134840680178C1F3801144
:103E700084F8BE10D0F80310C4F8BF10B0F80700E3
:103E8000A4F8C30094F92E007F280CD084F8C50054
:103E90007F2084F82E0004F1B400BDE838400222EF
:103EA000054906F033BE40F66C612D20FEF7CEF8D2
:103EB00038BD0000A00000200DAE00002DE9FE433B
:103EC00016460446032904D094F8680008B101207E
:103ED00000E000200025032903D00127052905D093
:103EE00008E0A1780227C1F3400101E0A178C907E9
:103EF00000296BD0002869D13548DFF8D890807B45
:103F000080B106F0A7FC3070FF2814D0C0B26A461A
:103F100002A9FEF799FF48B169469DF8080006F02E
:103F200027FE05463078FF2805D00DE040F69B714E
:103F30002D20FEF78BF8D9F8041011F8030BC0F30D
:103F4000801006F015FE0546D9F8041094F85720A5
:103F500004F1580311F8030BC0F3801006F012FCB3
:103F6000D9F80410804611F8030BC0F3801006F056
:103F70007BFC8146FEF788FF38B14846FEF744FFD8
:103F800018B1102106F0DFFC38B100213078FF288D
:103F90000CD0B8F1000F05D101E00121F6E7627EF7
:103FA000824201D1012003E0002001E028EA010063
:103FB000A278520701D530B908E039B91DB9E07BC4
:103FC00008B1B84202D10120BDE8FE830020FBE722
:103FD00030110020A000002070B50446008E104D66
:103FE000401C2086A87B002620B100F01FFE00F0B8
:103FF0003DFDAE732E7094F8690008B101210AE00E
:10400000607B38B1218E884204D80121204607F018
:1040100013F870BD00212046BDE8704007F00CB8D1
:10402000301100202DE9F041044680F875300888F1
:10403000A4F87600FF2084F893004FF6FF70164630
:104040000D46A4F89400002B4BD1286906F034FCEF
:10405000A4F88C00288BA4F88E00688BA4F890003C
:1040600095F81B0284F89200207E04F151010F465E
:10407000002520B194F8500006F0A6FD40B994F850
:104080006A0070B194F85000394606F094FD40B1D2
:10409000D4F85100C4F88000B4F85500A4F88400A6
:1040A00003E0C4F88050A4F884501548FF2E4068FF
:1040B0000178C1F3801184F8791050F8031F17D0EC
:1040C000C4F886108088A4F88A0004F17A02511E90
:1040D0003046FEF7B9FE30B114F8790F40F0020017
:1040E0002070BDE8F08140F68B412D20FDF7AEFF3A
:1040F00044F87A1F8088A080E5602582F1E70000FF
:10410000A0000020F8B50446FF208DF8000001252E
:104110006A4603212046FFF7D1FEE8B1207B20B19B
:104120009DF800102046FFF77BFE0D4E00217068C1
:104130000180042106F063FC204600F043F894F867
:104140004420216C706806F091FC06490520087037
:10415000706800F0B1FF00E000252846F8BD0000BF
:10416000A00000203011002070B504460E46407EAD
:10417000FEF74AFE050019D0102106F0E4FB0028E6
:1041800014D1012084F85E0004F15F0132460C4630
:10419000284606F027FB2146054C606806F04AFCDD
:1041A0006068BDE87040012106F04ABC70BD0000A7
:1041B000A0000020024801210068FFF75DBB00005D
:1041C000A000002070B5074D044600F15101686859
:1041D00006F03DFC94F850106868BDE8704006F0A9
:1041E0003CBC0000A0000020053B00008D39000011
:1041F000813A000000000000593A0000B13A000086
:10420000B1AD0000B7AD0000153D0000393D000024
:10421000B541000004420000FC410000F8410000EC
:1042200010B5421E022A01D9CA2109E0401E1029F8
:1042300009D012290CD013290AD0152905D0D8216C
:104240002F20FDF703FF054904E00449891D01E023
:104250000249891F31F8100010BD000008B00000AD
:10426000421E10B5D2B2012A03D91D2901D0EE2178
:104270000DE0132913D004DC10290BD0122904D12E
:104280000DE0152908D01D290ED04FF481712F2083
:10429000FDF7DCFE074804E00648083001E0054869
:1042A000001D30F8120010BD40F25A3110FB01F031
:1042B00010BD0000F6AF00002DE9F041044690F873
:1042C000E00016460F4600285ED121464D4803F017
:1042D00041FE0546202857D05022002104F1C80095
:1042E00008F095F884F8C8500125C4F8CC7084F81B
:1042F000E05037B1FFF788F800F00700401C87F85E
:104300004C02204606F063FFA4F8F000022084F877
:10431000F200A84684F8F350002504F8E85F04F0A2
:104320003FFF074607F05EFE2189E83C884200D83F
:1043300008463844CE3087B2204606F0F8FC30B349
:1043400007F06CFC00F5CD6081B2304605F02AF82C
:104350003044C4F8EC00903407F04DFEC0196941B8
:10436000C4E91A0184F8408024F86E5C012006F04C
:104370003BFE00F21510301A60644FF0FF30410828
:10438000C4E91E01903C25E00C20BDE8F08100212D
:10439000204606F0E9FEDFF87080C4F8EC0000204B
:1043A000B8F8041049B1618C39B1FFF72DF8B8F8AD
:1043B0000410B0FBF1F201FB1200074407F01BFEF2
:1043C000C0196941C4E93E019EB1801951EB050154
:1043D000C4E9420194F8C80004F1E80106F0F5FED2
:1043E00058B1A4F800510021204606F0D0FC00206E
:1043F000CBE74FF0FF304108EAE74FF4F771302088
:10440000FDF724FEAFB20000B00000200149888013
:1044100070470000B0000020054800210170012213
:104420008270417042F21071818000F003B8000088
:10443000B00000201CB50949D1E90001CDE9000117
:1044400002E0009806F00CFE6846FEF737F90028F7
:10445000F7D000F00BF800201CBD0000D044000095
:104460000149087070470000B00000202DE9FC41B0
:10447000164D0120687000244FF6FF760BE00021F6
:10448000FEF7CAF8070009D097F8A40203F04AFC27
:10449000384606F0FFFE009401940EE04FF491714F
:1044A0003020FDF7D3FD009838B190F8A4122029F0
:1044B00003D00088B042E2D104E06846FEF7FEF87F
:1044C0000028F0D06C70BDE8FC810000B000002036
:1044D00000000000000001000000000000000100DA
:1044E00000000000141E000030110000F401FA006A
:1044F000960064004B0032001E0014000A00050004
:104500000200010070B544680D2204F59875002181
:1045100004F16F0007F07BFF4FF4A3700021A4F8B3
:1045200044110155A5F81710697608465FF07F0120
:1045300004EB4002401CC0B282F874100228F7D38A
:1045400094F96E10204606F02FFF0020FF2122185C
:10455000401CC0B282F877100228F8D370BD00006A
:1045600003494A8802800978817000207047000062
:10457000F01000202DE9FC410F460546067807F0B3
:1045800060FA00280ED1284607F035FA002809D134
:1045900001213046FEF740F8040005D006F089FD01
:1045A00070B10C20BDE8FC8101213046FDF7FCFF15
:1045B000040013D0174890F90010204606F056FB6F
:1045C000204606F0BEFB3870E87429462046FFF707
:1045D0004BF80646687ED0B12EB118E041F22E515C
:1045E0003920FDF733FD00226846616B05F0CFFFEF
:1045F00000220121606B06F044F804226846616BDA
:1046000005F0C5FF00221146606B06F03AF830460F
:10461000C8E70000C4000020017871B1417861B1A1
:1046200041881B2909D381881B2906D304490268C4
:104630000A60808888800020704712207047000040
:10464000F0100020006840F2E241884203D30349A1
:10465000886000207047122070470000F010002092
:10466000034AD2E904120160426000207047000052
:104670002049000070B586B0044600F0AFF940094B
:1046800040EAC1602D4EC00704F12C0502D07188AC
:10469000B08801E01B210846E984288500F09EF9D6
:1046A00088074FF0010505D58DF800506846019444
:1046B000FFF728FFB068E06241F64C512161218884
:1046C000ADF80410B17B8DF80610F17B8DF8071062
:1046D000318AADF8081004A90091284603AB01AA5D
:1046E000214607F0FBF938B120880021FEF736F8A3
:1046F00008B340F27D511BE09DF80C008DF81400CA
:104700009DF810008DF81500BDF80800ADF81600F2
:1047100005A9204606F0D6F8707800903378B28864
:1047200071882088FEF74CF8002805D04FF4B1615D
:104730003920FDF78BFC092006B070BDF010002079
:104740001CB50949D1E90001CDE9000105E0009857
:1047500006F0AFFC08B101201CBD6846FDF7AEFFB6
:104760000028F4D000201CBD2049000010B50D48E1
:1047700000210D4BC17481821B221A804FF4A47456
:104780005C809A80DC808173C173032303700223F1
:1047900043704280828040F6A66282608174017319
:1047A00010BD0000F0100020CC00002010B5012149
:1047B0000020FDF731FF04000AD10121FDF7F4FECE
:1047C000040007D0064890F90010204606F04EFA83
:1047D000204610BD40F213313920FDF737FC0000B0
:1047E000C4000020F8B50C46054606F0ADFA58B1F5
:1047F000284606F09CFA48B1B4F80100122108B12D
:10480000802803D90846F8BD4221FBE7284606F078
:104810007FFA20B1284606F0EAF910B105E00C2134
:10482000F0E7284606F07DFA20B1284606F041FC64
:1048300030B901E01220F8BD284606F0F3F908B1BE
:104840000C20F8BD2846FEF7ADFEB4F8016042F238
:1048500010704643E178284606F051FA284606F0E3
:1048600062FAA8B100216846FDF74AFF040019D09A
:104870000021FEF781FBBDF800002080214628467C
:1048800006F079FA284606F056FA68B101200EE0E3
:10489000324600212846FFF70FFD0028D1D041F213
:1048A000687112E00D20F8BD284606F062FA014654
:1048B0002046FFF7DFFE0028F5D132462146284684
:1048C000FFF7FAFC20B141F28B713920FDF7BEFBF6
:1048D0000448436823B1002204F5997120469847A3
:1048E0000020F8BDC40000201CB50C49D1E902012C
:1048F000CDE900010AE0009C204606F0DAFB28B171
:10490000204606F047FA08B101201CBD6846FDF7B5
:10491000D5FE0028EFD000201CBD0000204900007B
:104920000000000000000100000000000000010085
:104930000D77100D590077100000000000000100F5
:10494000000000000000010010B5FEF797FC054CC8
:10495000606807F05AF906F0FBFFFEF743FD0120FF
:10496000207010BDD400002001480078704700007E
:10497000D400002010B5064CA06807F046F9E068A6
:1049800007F043F906F0E6FF0020207010BD00009C
:10499000D400002010B50549054807F029F904485E
:1049A000BDE810400349001D07F022B9E4000020D3
:1049B000D8000020EC00002001484078704700003B
:1049C000D400002010B5FEF70FFFFFF725FDBDE86E
:1049D00010400148FEF7EEBE881300200149D1E9DE
:1049E0000001704720000020064801880079020677
:1049F00042EA112000F001000018C0B240F00100AE
:104A0000704700002000002010B504F07BFC00225D
:104A1000084B114633F82140844203D303EB810055
:104A2000827803E0491CC9B20C29F3D30248027012
:104A300010BD000020BC00008B01002070B50546B1
:104A400016460C46022000F0BDF806490120F61E6D
:104A5000087005480660044808380560001F0460B7
:104A600070BD00008C01002010F5004010B50C4C0A
:104A7000207880B10B494FF40000086000F06AF81C
:104A8000002120B1012060700748006801E06170DA
:104A90001020A0702170BDE81040002000F092B8F6
:104AA0008C01002008F5014000F4004010B5022000
:104AB00000F088F804490120087000F059F8034913
:104AC0004FF40000086010BD8C01002004F5014087
:104AD000034800210170417010218170704700006F
:104AE0008C010020074810B5017841B100F032F880
:104AF00018B105480068C0B210BD102010BD807804
:104B000010BD00008C01002000F40040084810B5E2
:104B1000017859B10748D0F8000128B100F00CF82D
:104B2000002800D0012010BD022010BD407810BD2B
:104B30008C01002000F000400548D0F8041111B1AC
:104B4000D0F8080108B1002070470120704700002C
:104B500000F00040054810B5D0F8000120B1FFF783
:104B6000EBFF08B1012010BD002010BD00F0004097
:104B700004480021C0F80011C0F80411C0F8081161
:104B80007047000000F0004070B5054D0024287803
:104B900010B100F00FF82C706C70AC7070BD00009C
:104BA0008F01002002480021017041708170704720
:104BB0008F0100200249014808607047000002028E
:104BC00008F5014010B5044600F020F8002C0ED086
:104BD0000B4A0B480B491432012C05D0022C07D08C
:104BE00082213D20FDF732FA02230360116010BDDF
:104BF00003230360116004494FF40000086010BDF6
:104C000000F500408C15002004F50140054810B562
:104C1000002101600160FFF7B7FF03494FF4000076
:104C2000086010BD00F5004008F501400548D0F8C7
:104C3000001221F04001C0F800120021C0F86015F8
:104C400070470000001000400449C1F86005D1F829
:104C5000000240F04000C1F8000270470010004020
:104C60000249085C00F516607047000056580000C5
:104C7000F8B5244CD4F8040310F0100F01D001272C
:104C800000E000271020C4F808030220C4F8000246
:104C90001D4800251D4980F828504FF46020086009
:104CA000D4F850054FF4887610F0FF0F19D0FF208C
:104CB0008DF80000C4F810510120206105E000BF0C
:104CC0009DF80000401E8DF800009DF8000028B1FE
:104CD0003146204607F003F80028F1D09DF8000087
:104CE00058B100F0CDFBC4F8105100F035FD002F95
:104CF00002D01020C4F80403F8BD40F694013E2011
:104D0000FDF7A4F9001000405811002008F50140FB
:104D10002DE9F041184D074695F82800C2070FD03D
:104D2000164CD4F8002242F00102C4F8002240F0F0
:104D3000020085F8280001263FB1012F0BD010E0BA
:104D400040F26F713E20FDF781F9084600F05EFDEC
:104D50006E72266005E0084600F03EFD0220687293
:104D600066600748C66406480C30D0F840153846DF
:104D7000BDE8F04100F0C2BC581100200010004016
:104D8000008000402DE9F0472C4C06002C4D94F893
:104D90002800DFF8B08040F00200894684F828003F
:104DA0004FF0000702D0012E20D036E0084600F078
:104DB0002DFD01206072E079012805D1D5F80002AF
:104DC00040F00800C5F80002606A40F4801060629C
:104DD0004FF48010C8F800001B4931F819004FF457
:104DE0007A7100F5FA70B0FBF1F716E0084600F0B2
:104DF000F3FC02206072E079012805D1D5F80002A9
:104E000040F00400C5F80002606A40F400106062DF
:104E10004FF40010C8F80000292700F09DFB07F0B0
:104E2000D8F820B1FFF724FF0020BDE8F08700216B
:104E3000304600F063FC3846F7E7000058110020C8
:104E40000010004004F501405058000010B51DC886
:104E5000014981E81D0010BD4811002070B50F4CBC
:104E600003460220207394F82150962094F82010D5
:104E7000227D012D0ED000F027FD20610848002181
:104E8000C0F844112169E06908440549091DC1F8C9
:104E9000400570BD00F036FDEFE70000581100201E
:104EA000008000402DE9F04134220021134807F032
:104EB000AEFA00F051FC07F06BF9114D104E0024D2
:104EC0000F4F0835103628B907F079F910B907F0F7
:104ED00080F908B1242206E007F0BBF910B907F009
:104EE000AEF940B14022FF21384607F090FA2C601D
:104EF0003460BDE8F0813822F5E700005811002049
:104F0000000E004010B500F0DBFBFFF7B1FE04F02F
:104F100075FC30B1401C04D040F265513E20FDF7D5
:104F200095F80F480F4A416A41F04461116000242E
:104F300044620473C461846100F0C2FB0A48C0F893
:104F40004841C0F84441C0F84041C0F84C410120FC
:104F500006F0B4FEBDE81040012006F0A2BE00003D
:104F60005811002008F501400080004070B5012074
:104F700006F0A4FE374C0020C4F8FC0F0120C4F852
:104F8000FC0F07F03CF9344D18B1286840F48060FC
:104F9000286007F028F928B12868304920F0690016
:104FA0000843286007F03BF938B12B48001D016821
:104FB00021F47F4141F4B0510160274928483C3138
:104FC000086004F055FC40B14FF08050D0F8300339
:104FD000411C02D02049103108604FF01020006EB3
:104FE000411C04D01F490A6860F317420A6040F26E
:104FF000031140F25B60C4F83415C4F83805012091
:10500000C4F8300500F042F840F20120C4F8500620
:105010000220C4F8000214494FF0406008601349B0
:10502000002008861031C86181F82800012006F0B0
:1050300038FE1020C4F804034FF0E0210220C1F82C
:1050400000010B480068002802D0BDE8704000470E
:1050500070BD0000001000403C170040960000802A
:105060002C0000898C15004004F5014048110020F7
:10507000F4000020014948757047000058110020D5
:10508000014951F820007047A4580000084910B5A4
:1050900008750849012806D0022806D040F66C5150
:1050A0003E20FCF7D3FF032000E00420086010BD81
:1050B00058110020101500400549C1F804050548A5
:1050C00010F8281F41F00101017000F00BBA000038
:1050D0000010004058110020014951F8200070478D
:1050E000B05800002DE9F047304E314C884607009B
:1050F00015464FF0010906D0012F12D040F61701D6
:105100003E20FCF7A3FF104600F080FB294884F8FE
:10511000099030F81510404600F026FB0546304651
:105120000CE0104600F058FB0220607249F6BA719C
:10513000404600F019FB05461C48001D00F0D2FA5D
:10514000DFF87480C8F84055DFF874A01B48CAF82F
:1051500010051020C6F80403606A4FF4002640F4DE
:10516000002060621748066000F0F6F94146C8F872
:105170004C9011480C30D0F84005A84210D30020C4
:10518000C1F84005CAF81405606A20F40020606286
:105190000C48001D0660FFF76BFD0020BDE8F0879E
:1051A0002946384600F0AAFA0120F7E7001000402F
:1051B00058110020505800000080004040810040FD
:1051C00098F0014004F501400D4B10B5D8719A726A
:1051D00051B102201872012808D002280FD040F6E1
:1051E00044213E20FCF732FF0120F3E7587A0228E1
:1051F00005D100F03BF9BDE8104000F049BA10BD00
:10520000581100200449D1F8481501F07F014942A6
:105210000170012070470000001000400349020E99
:10522000C1F824250002C1F81C0570470010004099
:105230000149C1F83C0570470010004010B500223C
:10524000012906D0022902D040F2D22114E04FF009
:1052500080720B490A430B490A600B49084309490C
:10526000091D08600948D0F85005C0B2032801D0D4
:105270000B2804D140F2EA213E20FCF7E7FE10BDE6
:105280000801100014150040000003020010004047
:105290000149887570470000581100202DE9F0473A
:1052A00051484FF0010AC0F84CA04F480C30D0F8DC
:1052B000407506F08CFE4D4CC4E90B0700F0E0F899
:1052C0004B49606A0860DFF82C8100206062D8F8E2
:1052D000002240F21D139A43C8F8002284F82800E7
:1052E00000F04EF9054640480830D0F840053E4EE3
:1052F000E061361DD6F84005A06194F82100217DBB
:1053000084F82010617A84F82110A14600243946DF
:10531000284600F083F910B9C8F810A00124334FD3
:10532000E807A7F1100720D1A80727D506F077FFD7
:10533000F0B906F064FFD8B92F480068C0F3425CAA
:10534000C0F3006300F00F02C0F30311C0F30328A1
:1053500073B11AB111B1B8F1000F09D1C0F3044013
:10536000012805D1BCF1030F02D2386880470EE056
:1053700045F380002146401C7A6807E015F0280FAD
:1053800005D045F34011BA682046491C9047E8060D
:1053900001D5F868804799F809104846022920D1BC
:1053A000017B00291DD0022904D0012909D040F633
:1053B00056410DE0C169D9F810000844C6F840050F
:1053C0000BE00169D9F81C00814204D840F657412E
:1053D0003E20FCF73BFEC6F84015BDE8F04700F064
:1053E00061B9BDE8F087000000800040581100203E
:1053F00008F5014000100040501400400B48817D2A
:105400000B48405C00F51660B0F5166F04D2A0F6AC
:10541000381040F4807001E0A0F51660054AC2F82B
:10542000080501F07F00C2F85405704758110020AC
:10543000565800000010004008B50B496B4691F922
:105440001520897D00F0AAFA9DF9000000F07AFA93
:105450000DF1010004F0F6F9002804D040F2E65105
:105460003E20FCF7F3FD08BD581100200348017AE7
:10547000012902D1807AFFF7DFBF70475811002061
:105480000D4810B5407A01280CD0022813D104F041
:10549000BBF900280FD0401C0DD040F6AB013E20D8
:1054A000FCF7D4FD04F0C2F9002804D0401C02D05F
:1054B00040F6A501F3E710BD58110020084800216F
:1054C000C0F80011C0F80C11C0F81011C0F8041198
:1054D000C0F81411C0F81811C0F808117047000086
:1054E00000100040184810B590F82800C10729D0D6
:1054F000810714D51548D0F8001241F00101C0F819
:105500000012D0F85005C0B20B2805D00A2803D0ED
:10551000032801D0022815D140F20F610FE04007A7
:1055200010D50A480A490830C1F814054FF4A07193
:10553000084806F0D9FB002804D040F217613E204D
:10554000FCF784FD10BD0000581100200010004041
:1055500098F001400080004008480146C27991F867
:10556000281012B1012A03D006E041F0020101E047
:1055700041F0040180F82810FFF7B4BF5811002053
:105580002DE9F041224D0024287B38B14FF4A2715F
:10559000204806F0A9FB08B1012700E00027687A3F
:1055A0001D4E4FF48671012802D0022806D016E065
:1055B000304606F094FB90B1082410E0304606F027
:1055C0008EFB00B10224D6F80004C04340F3000073
:1055D000401C01D144F004040FB144F0010414F064
:1055E0000B0F07D14FF48871304606F078FB08B1F5
:1055F00044F01004FFF762FFE00606D5200704D44C
:10560000687A012801D144F020042046BDE8F081E9
:105610005811002000800040001000402DE9F041AA
:105620001A4C0D46217A29B110F0110F07D0FFF75F
:105630001FFB24E000F090F8002020731FE00129F8
:1056400001D0012600E00026E07901280ED00027D5
:1056500000F082F89621304600F094F801464FB1F0
:105660003B358D4204D90020BDE8F0810127EFE7EA
:105670000120E071A27A3046FFF734FD08B1012025
:10568000F2E740F6A5213E20FCF7E0FC581100208F
:105690000348D0F8001241F48871C0F80012704736
:1056A000001000400448416A41F48001416203490E
:1056B0004FF48000086070475811002004F5014045
:1056C000074A002008320649C2F840050A1DC2F800
:1056D0004005C1F8400502490C31C1F8400570474A
:1056E000008000400349C979002902D10249C1F86C
:1056F000140570475811002098F0014010B5144A65
:1057000020B1012811D040F253711CE001F12800B2
:10571000C2E902100F490E4804F08EF8002815D097
:10572000401C13D040F242710DE001F12900C2E9A2
:1057300002100849064804F06DF8002806D0401C05
:1057400004D040F24F713E20FCF780FC10BD0000F9
:10575000F80000208058000002480021C171017249
:105760004172704758110020054AD279012A06D0AB
:105770004FF47A7201F5FA71B1FBF2F1401A7047F9
:105780005811002070B5134C03460D4694F82120A3
:1057900000205AB1214691F8201063B1012B11D19C
:1057A000012A284612D006F0A4FA09E040F6580172
:1057B0003E20FCF74BFC012A284604D006F0A7FA4D
:1057C000E169084470BD00F0D1F8F9E700F0C0F8D5
:1057D000F6E700005811002010B5FFF757FCFFF75F
:1057E0000DFEFFF743FEFFF753FF06F018FD0028FC
:1057F00008D106F004FD002804D10348016841F4F3
:10580000C021016010BD00006815004010B50446BD
:10581000FFF73CFCFFF7F2FD2046FFF70DFE06F018
:10582000FEFC00280DD0094A11685006022CD0F861
:10583000200307D0C0F3062021F4FE4141EA0020F6
:10584000106010BDC0F30660F6E700008815004048
:1058500000002CA6E0A10406080A0C0E1012141673
:10586000181C1E20222426282A2C2E3032343638AA
:105870003A3C3E40424446484A4C4E021A500000D0
:1058800001000000101100400000000000000000B6
:10589000000000000000000000000000141E0000D6
:1058A0003011000000000000280000001800000077
:1058B00000000000141E0000301100000000000075
:1058C00070170000A00F000070B50546144608468A
:1058D000FFF702FC05EB4501C1EBC511C0EBC101AF
:1058E000074850F8240008444FF47A7100F6B730A6
:1058F000B0FBF1F52046FFF7C3FB2844401D70BD07
:105900009059000070B50E4D1C46083D0C4B35F803
:10591000111000EB400553F82230C5EBC01001EB2D
:10592000C00003F6B73318444FF47A71B0FBF1F5B9
:105930001046FFF7A5FB28442044401D70BD000021
:10594000905900000149C0B2086070470C15004032
:10595000054A32F811104FF47A7201F2E731B1FBC7
:10596000F2F10844801E704788590000054A32F859
:1059700011104FF47A7201F57A71B1FBF2F108441B
:1059800070470000885900000000DC05E8030000B3
:1059900000000000141E0000301100002DE9F84343
:1059A0001E4617460C46054600F056F8DFF8A49050
:1059B000804699F80000A84210D199F80110484695
:1059C000A1420BD190F90210B94207D1C2784245E9
:1059D00004D1818831808079B07037E03A46214621
:1059E000012D09D0022D09D0042D09D0082D09D090
:1059F00040F2614106200CE0002004E0012002E0BA
:105A0000032000E002206B4600F09EF818B13D2113
:105A10007520FCF71BFB2046FFF722F90246002306
:105A200031469DF9000003F019FF014689F807107F
:105A30003188A9F80410B17889F8061089F8005067
:105A400089F8014089F8027089F8038099F9070004
:105A5000BDE8F883940100200148007870470000F9
:105A60001001002070B5174C6078002823D1012068
:105A7000607006F0AEFB6FF0270528B906F0DFFB7B
:105A800010B906F0E6FB20B10F486060A570082051
:105A900010E006F073FB40B906F07AFB28B906F077
:105AA0008EFB10B906F09FFB30B1074831306060C3
:105AB000A5700420E07070BD40F23F11742003F027
:105AC0000FFD00001001002066C50000064A00B569
:105AD00092F90320904201DB104600BD00F008F867
:105AE0000249085600BD00001001002058C5000002
:105AF0000246134810B590F903309A4201DB0D209D
:105B000010BD90F902309A4201DC002010BD01B1B5
:105B10000121D41A4368185D0A4C24569442F5D0EA
:105B2000084C08443F34C0B2D2B2A342EED100299F
:105B3000ECD0012A01D0022AE8D1401CC0B210BD2D
:105B40001001002058C500002DE9F0411C46904688
:105B50000D4606466FF01507042804D81CB106F060
:105B6000E1F8A84202D83846BDE8F081054842462F
:105B700050F8260018B14057824200DD02462270DC
:105B80000020F1E78C11002070B50D4604000CD008
:105B900094F8286000210220092D6ED2DFE805F07C
:105BA00008113636667189A694004FF4CB71F7E080
:105BB00094F8260004287BD00328FCD040F2A111E1
:105BC000EEE094F82600042804D0032802D040F226
:105BD000A511E5E0052084F8260084F8291094F842
:105BE0002400B8BB0021204606F0FDF820780128EB
:105BF00007D0D4E9040100BFC4E906010021226AEC
:105C000048E094F8270001F0D5F9F5E794F826105C
:105C1000042904D0032902D040F2C311C0E094F853
:105C2000242022B12146304606F01DF9B0E00429B7
:105C300000D0012084F82600226A022D0BD0062114
:105C40003046904700286DD0007800286AD040F296
:105C5000DD11A5E034E0052130469047002870D0E2
:105C6000007800286DD04FF4EC7199E094F826008C
:105C7000052803D04FF4F27192E080E00221226AFD
:105C800008E094F82600052802D04FF4F57187E06B
:105C9000226A0121304690470146204606F04EF820
:105CA000022875D0E8B301286CD040F22A2177E0B1
:105CB00070E094F82600052802D04FF4F8716FE0E8
:105CC000BDE8704000F09EB894F82600052802D088
:105CD00040F2F51164E0226A0A21304690470146FD
:105CE000204606F02BF84FF4FC7159E094F826207A
:105CF000052A07D094F825300BB1032A02D04FF4BF
:105D0000FE714DE094F824202AB121463046BDE8CA
:105D1000704006F0A8B894F829209AB184F82910A8
:105D200001E032E034E084F82600226A082130469F
:105D30009047002837D00078002834D04FF4027103
:105D40002EE030E094F825205AB184F8251094F81C
:105D50002700214606F045F8002824D140F20D2105
:105D60001EE084F82600226A07213046904700286A
:105D700019D00078002816D04FF4057110E040F2D9
:105D800019210DE00421226A84E70321226A81E7B8
:105D9000002D08D106F01DF9002804D040F233216F
:105DA0006A2003F09DFB70BD002819D003781349C9
:105DB000134A13B1012B0ED011E00379012B00D04F
:105DC0006BB943790BB1012B09D18368643B8B42DA
:105DD00005D2C0680EE00379012B02D00BB1002080
:105DE000704743790BB1012BF9D1C368643B8B42F7
:105DF000F5D280689042F2D8012070473D860100BC
:105E0000FF3F420F10B5054C206810B180470020BD
:105E10002060BDE8104002F0C1B800001801002069
:105E20002DE9F0410E46050004D000F047F8074682
:105E300000240BE06FF01500BDE8F081204600F073
:105E400043F890F8260030B1641CE4B2BC42F5D3AC
:105E50006FF00B00F0E72746FF2CF9D0204600F04A
:105E600033F8044606F01AF884F8287021460848EA
:105E700002F070F884F82700202806D0012025625F
:105E800084F8260037700020D6E76FF02200D3E7B1
:105E9000895B000010B5820702D06FF00D0010BDC5
:105EA000054A1170506028B101EB41010A0100213F
:105EB00006F0ADFA002010BD1C010020014800785A
:105EC000704700001C01002005490A78904201D368
:105ED00000207047496800EB400001EB001070475C
:105EE0001C0100200D4910B591F8420020280FD068
:105EF00091F84200A1F5906202EB401091F8421037
:105F0000406802EB41110A68BDE8104004211047C7
:105F100040F67F01702003F0E3FA0000300F00200C
:105F200070B50546202A28D019481A4C00EB831C6E
:105F300003EB43030CEB42002344202922D00CEB5B
:105F4000410140784C784870204601460CEB4100F6
:105F5000914205704078F8D193F82A20202A1ABF80
:105F60000CEB4202547083F8294020220CEB410CC8
:105F70008CF8012083F82A1070BD40F28621702031
:105F800003F0AEFA93F82840407883F82800DBE766
:105F9000B00E0020300F00202DE9F04F8FB01646D4
:105FA0001D460C4602F00AFA301845F10001CDE911
:105FB0000110D4E90023801A71EB0300C0F0E580E2
:105FC00008A8DDF860800A90BE4808EB4801084444
:105FD000099090F8285020200DF11C098DF81C0024
:105FE000202D36D0B848002600EB881AB748D4E9EF
:105FF000007300EB451050F808BFD0E901121BEB0D
:1060000002027141BA1A73EB010122D3E189C9B1CD
:10601000C089B8B903F0C4F8B0F5C67F08BF0D2039
:106020000BD0A0F54070563808BF1C2005D0A0F555
:1060300000709F3814BF30463220411CB7EB0B0074
:10604000884206DB0AEB450089F800504578202D90
:10605000CCD10A9899F80010202D01700A9E00F00A
:106060002D819948002700EB8810DFF860820490AA
:10607000D4E90131D4F800B008EB451909F1080062
:106080001BEB010243EB0701D0E900A3BAEB0202CC
:1060900073EB010120D3C089002800F00F81E08953
:1060A000002840F00B8103F07BF8B0F5C67F08BFF5
:1060B0000D200BD0A0F54070563808BF1C2005D02D
:1060C000A0F500709F3814BF38463220401CBAEB50
:1060D0000B01814280F2F280357099F81800217C22
:1060E000814207D2049800EB45004578202DBFD1AE
:1060F00000F0E4B89DF8200008EB4010D0E903213F
:10610000D0F80890C08A19EB010542EB0706B0BB36
:10611000E089A0B303F044F8B0F5C67F08BF0D20B6
:106120000BD0A0F54070563808BF1C2005D0A0F554
:1061300000709F3814BF38463220411CB5EB09006F
:1061400088421CDA03F02CF8B0F5C67F08BF0D209A
:106150000BD0A0F54070563808BF1C2005D0A0F524
:1061600000709F3814BF384632209DF82010401C24
:1061700008EB4112D2E902130D1843EB0706DDE9E3
:106180000110401B71EB060003D20FB00020BDE8E8
:10619000F08FC4E9005618980B9008A80A90099847
:1061A0000DF11C0990F8285020208DF81C00202D9E
:1061B0003CD045480B9900EB811A00BF08EB451015
:1061C00000F108010269D1E9000CBB4683184CEBD1
:1061D0000B02D4E9006CF31A7CEB020226D3E289AD
:1061E000EAB1C989D9B90C9002F0DAFFB0F5C67FDF
:1061F00008BF4FF00D0B0CD0A0F54070563808BF0B
:106200004FF01C0B05D0A0F500709F3808BF4FF071
:10621000320B0BF101000C99711A814206DB0AEB7B
:10622000450089F800504578202DC7D10A9899F883
:106230000010202D0170DDE90AA03FD0224901EBBA
:1062400080100390D4E90131D4F800B008EB451672
:1062500006F108001BEB010243EB0701D0E90093B4
:10626000B9EB020273EB01011BD3C08930B3E089A3
:1062700020BB02F095FFB0F5C67F08BF0D200BD004
:10628000A0F54070563808BF1C2005D0A0F500705E
:106290009F3814BF38463220401CB9EB0B018142B5
:1062A0000CDA8AF80050307E217C8142BFF422AFA4
:1062B000039800EB45004578202DC3D10FB0012095
:1062C000BDE8F08F300F0020B00E0020B00A002093
:1062D0002DE9F04383B0914604460D46984601AA45
:1062E0006946184602F086F802F082FD02F066F870
:1062F00007461E4890F842100026202909D08268DF
:10630000C1680069831D46F10000D41841EB000507
:1063100026E00A3445F10005B8F1000F17D003F06C
:1063200067F8A0B902F03CFFB0F5C67F08BF0D20AA
:106330000BD0A0F54070563808BF1C2005D0A0F542
:1063400000709F3814BF3046322004197541B9F1EE
:10635000000F05D10098874202D9381A04197541F7
:1063600003B020462946BDE8F0830000300F00202E
:106370002DE9FF4F81B0054602984A4900EB4000E5
:106380000844002690F82840202092461070A1F57D
:106390009069202C36D0029909F5806000EB811BB2
:1063A00009EB4410D5E9007350F8088FD0E90112C9
:1063B00018EB02027141BA1A73EB010122D3E98989
:1063C000C9B1C089B8B902F0EBFEB0F5C67F08BF0D
:1063D0000D200BD0A0F54070563808BF1C2005D00A
:1063E000A0F500709F3814BF30463220411CB7EB37
:1063F0000800884206DB0BEB44008AF80040447832
:10640000202CCDD104989AF80010202C0170049F04
:10641000029842D0244901EB80100090D5E9013167
:10642000D5F800B009EB441808F108001BEB010295
:1064300043EB0601D0E900A3BAEB020273EB0101C2
:106440001BD3C08948B3E88938BB02F0A9FEB0F578
:10645000C67F08BF0D200BD0A0F54070563808BF8E
:106460001C2005D0A0F500709F3814BF30463220A4
:10647000411CBAEB0B0088420FDA3C7098F81810F8
:10648000287C884203D305B00020BDE8F08F009837
:1064900000EB44004478202CC0D105B00120BDE8B9
:1064A000F08F0000300F0020B00E00202DE9FF5FBC
:1064B0009CB01E4602F0EEF904460D4602F098FC30
:1064C00080461E98012818BF022805D040F65611B4
:1064D0004FF0700003F004F8FE4901200860FE4907
:1064E0008968086000208DF852000C90401E0D90C5
:1064F000FA4800EB461000F10801D0E9066091E887
:106500000E10CDE912600EA880E80E1021F07F4039
:1065100005F073FD0246BDF846909DF84400F04B2F
:106520004844411C50189A4257D8EE4A91425CDCCC
:106530005242914261DB591C8142DCBF00F5F700F9
:10654000A0F1F85005DD0028BCBFA0F5F70000F170
:10655000F8501790E448B9F1000FB0F8A000ADF87A
:10656000500014BF4FF0010B4FF0000B02F040FF42
:106570001990BBF1000F0CD0DC49D1E90E016FEA94
:10658000000070EA010002BF199800284FF0010ACC
:1065900001D04FF0000A02F003FEB0F5C67F08BF3D
:1065A0000D200BD0A0F54070563808BF1C2005D038
:1065B000A0F500709F3814BF002032200026374617
:1065C0001690C84537D91799C54E6FEA080C6B4627
:1065D0001AAA01EB0C00B14204D940F27F5170209D
:1065E00002F07EFFBF498C4504DD4FF4B06170209E
:1065F00002F076FFBE498C4504DA40F281517020EA
:1066000002F06EFFBB498142DCBF00F5F700A0F14C
:10661000F85005DD0028BCBFA0F5F70000F1F850E8
:10662000194601F0E7FE00980E9920F07F40009097
:10663000081A20F07F46BAF1000F18BF169F04D148
:106640009DF85000002818BF0227E04370EA0500BB
:1066500022D0DDE90E01221A75EB01020CD2021BD9
:1066600061EB0501B2F5000271F1000111D340F6B2
:106670009511702002F034FF221A65EB0101B2F58A
:10668000000271F1000104D340F69911702002F06C
:1066900027FF001B012803DA1C981A9003200DE045
:1066A000BAF1000F08D0914890F8400020B19DF851
:1066B0005000071C18BF022700201A940744DDE988
:1066C0000E02801B62F10001421EDDF868C041F13C
:1066D000FF33B2EB0C0CBC4508DBA6B3DDF840C0C1
:1066E000CDE90E01B444CDF840C02CE02EB19DF8A8
:1066F000510030B902F072FB18B1BAF1000F14D199
:106700000CE0BAF1000F04D19DF85000002818BF2A
:10671000BF1E00268DF85060B04606E09DF8500080
:1067200018B100208DF85000BF1EDDE90E02801B5D
:1067300062F10001421EDDF868C041F1FF33B2EBA7
:106740000C0CBC457EDBDDF864C0BCF1000F11D140
:10675000DFF898C1DCE90E6CF74377EA0C0709D043
:10676000861B169861EB0C01301A71F1000038BFDE
:10677000002000D301203BEA000063D1DDE91C10BA
:10678000CDE907011E981646CDE918A01F464FF027
:10679000000A02F005FDB0F5C67F08BF0D200BD042
:1067A000A0F54070563808BF1C2005D0A0F5007039
:1067B0009F3814BF50463220DDE907320B30B21A41
:1067C00067EB0303101A73F1000029D2199801280E
:1067D00002D0189848B116E0E04370EA050026D1CF
:1067E00040F6D701702002F07BFEE04370EA05001E
:1067F00009D01CD0A01B65EB07010023D0F10402D7
:1068000073EB010206DA34463D462046294601F084
:1068100021FF0CE00022101A72EB010012DB06E0EF
:1068200034463D462046294601F014FFDA46264606
:10683000F14371EA05006FD00E9926F07F400027E2
:106840000B1A00E06DE0DDF840C023F07F4311EB50
:106850000C01081A20F07F40012B62D3B3F5000F22
:1068600098BFB0F5000F5CD826F07F4005F0C5FB5F
:1068700017991C4A0C1AA21A77F1000216D3194B69
:10688000421AD31A77F1000310D3154BA3423EBF2F
:10689000C0F5902000F1F450441807D3934244D23D
:1068A000C1F5902101F1F451084444420F4D95F88F
:1068B000220078B31E98012805D0022002F056F974
:1068C000012002F053F9C14540D2A4EB08014FF07A
:1068D000020011E00805004024010020B00A002059
:1068E000FF7F841E0040420FB00E0020300F0020BA
:1068F00000C0BDF00080841E02F07EF8A8B3B9F19C
:10690000000F1CBFA4EB0901012037D002F074F87E
:1069100058B333E00EE0FFE740F60321702002F0A9
:10692000DFFD20B00020BDE8F09F40F6D7217020A9
:1069300002F0D6FDC14534BF404648461E30A04255
:10694000B8DB40F61721702002F0CAFD0ED9A4EB87
:106950000901012002F050F838B1B8F1000F1CBF56
:10696000A4EB0801022009D0D0E738E058EA09007A
:1069700004D040F63A11702002F0B2FD214600200A
:1069800002F03AF858B34FF00108BBF1000F04BF12
:1069900095F84000002802D0BAF1000F29D0D5E9BF
:1069A0000E10C94371EA000006D002F0FFFB4FF061
:1069B000FF300146C5E90E01BAF1000F1FD016984D
:1069C000301A20F07F414FF0050002F015F870B347
:1069D00095F84000002808BF85F8408017E00220A5
:1069E00002F0C4F8012002F0C1F820B00020BDE898
:1069F000F09FD5E90E10C94371EA000012D095F856
:106A0000400020B1052002F0B1F885F84070A4EBF9
:106A10000900A0F1190100290FDC4FF42461702056
:106A200002F05EFD02F0DEFB01F0C4FFC2E7FFE70B
:106A300040F2E621702002F053FD032001F0DCFF5C
:106A400018B3144880680760134807600DF13008D8
:106A5000124898E8FE10C0F88010C0F88420C0F8F2
:106A60008830C0F88C40C0F89050C0F89460C0F8EE
:106A70009870C0F89CC0DDE91412C0F8A010C0F8EE
:106A8000A42020B00120BDE8F09F40F648217020EE
:106A900002F026FD2401002008050040B00E002071
:106AA00070B51D4D95F84200202818BF70BD95F8AF
:106AB000412002EB4200284490F82840202C26D0A8
:106AC000164B03EB821101EB4401497880F8281042
:106AD000FF2085F8310085F842402146022000F071
